{"abi":[{"type":"constructor","inputs":[{"name":"payAnyWhere","type":"address","internalType":"address"},{"name":"_aavePool","type":"address","internalType":"address"},{"name":"_oftIn","type":"address","internalType":"address"},{"name":"_feeBps","type":"uint16","internalType":"uint16"}],"stateMutability":"nonpayable"},{"type":"function","name":"AAVE","inputs":[],"outputs":[{"name":"","type":"address","internalType":"contract IAaveV3Pool"}],"stateMutability":"view"},{"type":"function","name":"ENDPOINT","inputs":[],"outputs":[{"name":"","type":"address","internalType":"address"}],"stateMutability":"view"},{"type":"function","name":"OFT_IN","inputs":[],"outputs":[{"name":"","type":"address","internalType":"address"}],"stateMutability":"view"},{"type":"function","name":"PAYANYWHERE","inputs":[],"outputs":[{"name":"","type":"address","internalType":"address"}],"stateMutability":"view"},{"type":"function","name":"TOKEN_IN","inputs":[],"outputs":[{"name":"","type":"address","internalType":"address"}],"stateMutability":"view"},{"type":"function","name":"feeBps","inputs":[],"outputs":[{"name":"","type":"uint16","internalType":"uint16"}],"stateMutability":"view"},{"type":"function","name":"handleCompose","inputs":[{"name":"_message","type":"bytes","internalType":"bytes"},{"name":"_amountLD","type":"uint256","internalType":"uint256"}],"outputs":[],"stateMutability":"payable"},{"type":"function","name":"lzCompose","inputs":[{"name":"_sender","type":"address","internalType":"address"},{"name":"_guid","type":"bytes32","internalType":"bytes32"},{"name":"_message","type":"bytes","internalType":"bytes"},{"name":"","type":"address","internalType":"address"},{"name":"","type":"bytes","internalType":"bytes"}],"outputs":[],"stateMutability":"payable"},{"type":"event","name":"PaymentReceived","inputs":[{"name":"recipient","type":"address","indexed":true,"internalType":"address"},{"name":"amountLd","type":"uint256","indexed":false,"internalType":"uint256"}],"anonymous":false},{"type":"event","name":"Sent","inputs":[{"name":"guid","type":"bytes32","indexed":true,"internalType":"bytes32"}],"anonymous":false},{"type":"event","name":"SuppliedPaymentReceived","inputs":[{"name":"recipient","type":"address","indexed":true,"internalType":"address"},{"name":"amountLd","type":"uint256","indexed":false,"internalType":"uint256"}],"anonymous":false},{"type":"error","name":"InvalidAavePool","inputs":[]},{"type":"error","name":"InvalidFee","inputs":[{"name":"feeBps","type":"uint16","internalType":"uint16"}]},{"type":"error","name":"InvalidStargatePool","inputs":[]},{"type":"error","name":"OnlyEndpoint","inputs":[{"name":"endpoint","type":"address","internalType":"address"}]},{"type":"error","name":"OnlySelf","inputs":[{"name":"caller","type":"address","internalType":"address"}]},{"type":"error","name":"OnlyValidComposerCaller","inputs":[{"name":"sender","type":"address","internalType":"address"}]},{"type":"error","name":"SafeERC20FailedOperation","inputs":[{"name":"token","type":"address","internalType":"address"}]}],"bytecode":{"object":"0x610140604052346100bf5761001e6100156101d6565b9291909161045f565b6100266100c4565b6111d86106df823960805181818160c10152610d07015260a0518181816102be015281816109060152610afe015260c051818181610522015281816108a4015281816109310152610b29015260e0518181816103700152610d400152610100518181816103c901528181610954015281816109cf015281816109f70152610a62015261012051818181610153015261085c01526111d890f35b6100ca565b60405190565b5f80fd5b601f801991011690565b634e487b7160e01b5f52604160045260245ffd5b906100f6906100ce565b810190811060018060401b0382111761010e57604052565b6100d8565b9061012661011f6100c4565b92836100ec565b565b5f80fd5b60018060a01b031690565b6101409061012c565b90565b61014c81610137565b0361015357565b5f80fd5b9050519061016482610143565b565b61ffff1690565b61017681610166565b0361017d57565b5f80fd5b9050519061018e8261016d565b565b6080818303126101d1576101a6825f8301610157565b926101ce6101b78460208501610157565b936101c58160408601610157565b93606001610181565b90565b610128565b6101f46118b7803803806101e981610113565b928339810190610190565b90919293565b90565b90565b61021461020f610219926101fa565b6101fd565b61012c565b90565b61022590610200565b90565b5f0190565b90565b61024461023f6102499261022d565b6101fd565b610166565b90565b61025590610166565b9052565b919061026c905f6020850194019061024c565b565b61028261027d6102879261012c565b6101fd565b61012c565b90565b6102939061026e565b90565b61029f9061028a565b90565b6102ab9061026e565b90565b6102b7906102a2565b90565b6102c39061026e565b90565b6102cf906102ba565b90565b60e01b90565b906020828203126102f1576102ee915f01610157565b90565b610128565b6102fe6100c4565b3d5f823e3d90fd5b61030f9061026e565b90565b61031b90610306565b90565b610327906102ba565b90565b61033390610137565b90565b61033f8161032a565b0361034657565b5f80fd5b9050519061035782610336565b565b906020828203126103725761036f915f0161034a565b90565b610128565b610380906102ba565b90565b61038d9051610137565b90565b6103999061026e565b90565b6103a590610390565b90565b6103b1906102ba565b90565b6103bd90610137565b90565b6103ca90516103b4565b90565b6103d6906102ba565b90565b151590565b6103e7816103d9565b036103ee57565b5f80fd5b905051906103ff826103de565b565b9060208282031261041a57610417915f016103f2565b90565b610128565b61042890610137565b9052565b90565b6104389061042c565b9052565b91602061045d92949361045660408201965f83019061041f565b019061042f565b565b91908061047c6104766104715f61021c565b610137565b91610137565b146106c2578161049c6104966104915f61021c565b610137565b91610137565b146106a657836104b66104b0612710610230565b91610166565b1161068757906104cc6104f89282608052610296565b60a05260206104e26104dd836102ae565b6102c6565b63fc0c546a906104f06100c4565b9485926102d2565b8252818061050860048201610228565b03915afa8015610682576105306020926105359261054b955f91610655575b5060c052610312565b61031e565b635e280f11906105436100c4565b9384926102d2565b8252818061055b60048201610228565b03915afa801561065057610576915f91610622575b50610377565b60e052610100526101205261059b61059661059160c0610383565b61039c565b6103a8565b602063095ea7b3916105b56105b060a06103c0565b6103cd565b906105d45f8019956105df6105c86100c4565b978896879586946102d2565b84526004840161043c565b03925af1801561061d576105f1575b50565b6106119060203d8111610616575b61060981836100ec565b810190610401565b6105ee565b503d6105ff565b6102f6565b610643915060203d8111610649575b61063b81836100ec565b810190610359565b5f610570565b503d610631565b6102f6565b6106759150853d811161067b575b61066d81836100ec565b8101906102d8565b5f610527565b503d610663565b6102f6565b6106a2845f91829163f6f4a38f60e01b835260048301610259565b0390fd5b5f63de3d2dc160e01b8152806106be60048201610228565b0390fd5b5f6319f3f04960e31b8152806106da60048201610228565b0390fdfe60806040526004361015610013575b610579565b61001d5f3561009c565b806302ebb5fa1461009757806324a9d853146100925780634077882a1461008d57806348ccda3c146100885780636fad06f5146100835780639ad6d3b21461007e578063d0a10260146100795763f00c202a0361000e57610544565b6104f0565b6103eb565b610392565b610339565b610292565b61019e565b61011c565b60e01c90565b60405190565b5f80fd5b5f80fd5b5f9103126100ba57565b6100ac565b7f000000000000000000000000000000000000000000000000000000000000000090565b60018060a01b031690565b6100f7906100e3565b90565b610103906100ee565b9052565b919061011a905f602085019401906100fa565b565b3461014c5761012c3660046100b0565b6101486101376100bf565b61013f6100a2565b91829182610107565b0390f35b6100a8565b7f000000000000000000000000000000000000000000000000000000000000000090565b61ffff1690565b61018590610175565b9052565b919061019c905f6020850194019061017c565b565b346101ce576101ae3660046100b0565b6101ca6101b9610151565b6101c16100a2565b91829182610189565b0390f35b6100a8565b5f80fd5b5f80fd5b5f80fd5b5f80fd5b909182601f8301121561021d5781359167ffffffffffffffff831161021857602001926001830284011161021357565b6101df565b6101db565b6101d7565b90565b61022e81610222565b0361023557565b5f80fd5b9050359061024682610225565b565b91604083830312610288575f83013567ffffffffffffffff811161028357610275836102809286016101e3565b939094602001610239565b90565b6101d3565b6100ac565b5f0190565b6102a66102a0366004610248565b91610801565b6102ae6100a2565b806102b88161028d565b0390f35b7f000000000000000000000000000000000000000000000000000000000000000090565b90565b6102f76102f26102fc926100e3565b6102e0565b6100e3565b90565b610308906102e3565b90565b610314906102ff565b90565b6103209061030b565b9052565b9190610337905f60208501940190610317565b565b34610369576103493660046100b0565b6103656103546102bc565b61035c6100a2565b91829182610324565b0390f35b6100a8565b7f000000000000000000000000000000000000000000000000000000000000000090565b346103c2576103a23660046100b0565b6103be6103ad61036e565b6103b56100a2565b91829182610107565b0390f35b6100a8565b7f000000000000000000000000000000000000000000000000000000000000000090565b3461041b576103fb3660046100b0565b6104176104066103c7565b61040e6100a2565b91829182610107565b0390f35b6100a8565b610429816100ee565b0361043057565b5f80fd5b9050359061044182610420565b565b90565b61044f81610443565b0361045657565b5f80fd5b9050359061046782610446565b565b60a0818303126104eb5761047f825f8301610434565b9261048d836020840161045a565b92604083013567ffffffffffffffff81116104e657816104ae9185016101e3565b9290936104be8360608301610434565b92608082013567ffffffffffffffff81116104e1576104dd92016101e3565b9091565b6101d3565b6101d3565b6100ac565b61050a6104fe366004610469565b95949094939193610cf7565b6105126100a2565b8061051c8161028d565b0390f35b7f000000000000000000000000000000000000000000000000000000000000000090565b34610574576105543660046100b0565b61057061055f610520565b6105676100a2565b91829182610107565b0390f35b6100a8565b5f80fd5b610586906102ff565b90565b610592906100e3565b90565b61059e81610589565b036105a557565b5f80fd5b905051906105b682610595565b565b906020828203126105d1576105ce915f016105a9565b90565b6100ac565b5190565b6105e3906102ff565b90565b6105fa6105f56105ff92610175565b6102e0565b610222565b90565b634e487b7160e01b5f52601160045260245ffd5b61062561062b91939293610222565b92610222565b91610637838202610222565b92818404149015171561064657565b610602565b90565b61066261065d6106679261064b565b6102e0565b610222565b90565b634e487b7160e01b5f52601260045260245ffd5b61068a61069091610222565b91610222565b90811561069b570490565b61066a565b6106af6106b591939293610222565b92610222565b82039182116106c057565b610602565b6106ce906102e3565b90565b6106da906106c5565b90565b90565b6106f46106ef6106f9926106dd565b6102e0565b610222565b90565b5f80fd5b601f801991011690565b634e487b7160e01b5f52604160045260245ffd5b9061072890610700565b810190811067ffffffffffffffff82111761074257604052565b61070a565b60e01b90565b5f91031261075757565b6100ac565b61076590610222565b9052565b61077d610778610782926106dd565b6102e0565b610175565b90565b61078e90610769565b9052565b6107c76107ce946107bd6060949897956107b3608086019a5f8701906100fa565b602085019061075c565b60408301906100fa565b0190610785565b565b6107d86100a2565b3d5f823e3d90fd5b6107e9906102ff565b90565b91906107ff905f6020850194019061075c565b565b903361081d6108176108123061057d565b6100ee565b916100ee565b03610c6e576108326108489161084d93610f88565b602061083d826105d6565b8183010191016105b8565b6105da565b61089f610897610886846108807f00000000000000000000000000000000000000000000000000000000000000006105e6565b90610616565b61089161271061064e565b9061067e565b9283906106a0565b6108c87f00000000000000000000000000000000000000000000000000000000000000006106d1565b91816108dc6108d65f6106e0565b91610222565b11610af9575b5050816108f76108f15f6106e0565b91610222565b11610901575b5050565b61092a7f000000000000000000000000000000000000000000000000000000000000000061030b565b63617ba0377f000000000000000000000000000000000000000000000000000000000000000084927f00000000000000000000000000000000000000000000000000000000000000005f823b15610af4575f946109a5869261099a9461098e6100a2565b998a9889978896610747565b865260048601610792565b03925af19081610ac8575b50155f14610a5f5760016109c9575b50505b5f806108fd565b6109f5907f00000000000000000000000000000000000000000000000000000000000000008391610fcc565b7f0000000000000000000000000000000000000000000000000000000000000000610a55610a437f6ef95f06320e7a25a04a175ca677b7052bdd97131872c2192525a629f51be770926107e0565b92610a4c6100a2565b918291826107ec565b0390a25f806109bf565b507f0000000000000000000000000000000000000000000000000000000000000000610ac0610aae7f953fb175232c52631bf0fd0d3ee4483648204a41890bfb223deb091e197d2d36926107e0565b92610ab76100a2565b918291826107ec565b0390a26109c2565b610ae7905f3d8111610aed575b610adf818361071e565b81019061074d565b5f6109b0565b503d610ad5565b6106fc565b610b227f000000000000000000000000000000000000000000000000000000000000000061030b565b63617ba0377f00000000000000000000000000000000000000000000000000000000000000008492845f823b15610c69575f94610b7d8692610b7294610b666100a2565b998a9889978896610747565b865260048601610792565b03925af19081610c3d575b50155f14610bf6576001610ba1575b50505b5f806108e2565b610bad83828491610fcc565b610bec610bda7f6ef95f06320e7a25a04a175ca677b7052bdd97131872c2192525a629f51be770926107e0565b92610be36100a2565b918291826107ec565b0390a25f80610b97565b610c35610c237f953fb175232c52631bf0fd0d3ee4483648204a41890bfb223deb091e197d2d36926107e0565b92610c2c6100a2565b918291826107ec565b0390a2610b9a565b610c5c905f3d8111610c62575b610c54818361071e565b81019061074d565b5f610b88565b503d610c4a565b6106fc565b610c88335f91829162a19dbf60e81b835260048301610107565b0390fd5b60209181520190565b90825f939282370152565b9190610cba81610cb381610cbf95610c8c565b8095610c95565b610700565b0190565b939290610ce1602091610ce99460408801918883035f8a0152610ca0565b94019061075c565b565b610cf490610443565b90565b9294509450915080610d31610d2b7f00000000000000000000000000000000000000000000000000000000000000006100ee565b916100ee565b03610e69575033610d6a610d647f00000000000000000000000000000000000000000000000000000000000000006100ee565b916100ee565b03610e4a57610d7a8183906110e8565b91610d843061057d565b91634077882a903493919390929490823b15610e45575f94610dc2610db793610dab6100a2565b98899788968795610747565b855260048501610cc3565b03925af18015610e4057610e14575b50610dfc7f27b5aea9f5736c02241d8a0272e9ec988ea44cf85c4b4760329431aa1967839491610ceb565b90610e056100a2565b80610e0f8161028d565b0390a2565b610e33905f3d8111610e39575b610e2b818361071e565b81019061074d565b5f610dd1565b503d610e21565b6107d0565b6106fc565b610e65335f9182916391ac5e4f60e01b835260048301610107565b0390fd5b610e84905f91829163e67762a560e01b835260048301610107565b0390fd5b606090565b90565b60ff1690565b610eaa610ea5610eaf92610e8d565b6102e0565b610e90565b90565b610ebc604c610e96565b90565b610ed3610ece610ed892610e90565b6102e0565b610222565b90565b5f80fd5b5f80fd5b90939293848311610f03578411610efe576001820201920390565b610edf565b610edb565b5f80fd5b90610f1f610f186100a2565b928361071e565b565b67ffffffffffffffff8111610f3f57610f3b602091610700565b0190565b61070a565b90929192610f59610f5482610f21565b610f0c565b93818552602085019082840111610f7557610f7392610c95565b565b610f08565b610f85913691610f44565b90565b610fb891610fb291610f98610e88565b5090610faa610fa5610eb2565b610ebf565b908092610ee3565b90610f7a565b90565b151590565b610fc9906102ff565b90565b91610fe591610fdf918491600192611138565b15610fbb565b610fec5750565b610ff861100f91610fc0565b5f918291635274afe760e01b835260048301610107565b0390fd5b5f90565b90565b61102e61102961103392611017565b6102e0565b610e90565b90565b611040600c61101a565b90565b90565b61105a61105561105f92611043565b6102e0565b610e90565b90565b61106c602c611046565b90565b5090565b1b90565b9061108561108c918361106f565b9135610443565b906020811061109a575b5090565b6110ac905f1990602003600802611073565b165f611096565b5f1c90565b6110cc6110c76110d192610222565b6102e0565b610222565b90565b6110e06110e5916110b3565b6110b8565b90565b6111266111319261112c926110fb611013565b5090611105611036565b9061112061111a611114611062565b93610ebf565b92610ebf565b92610ee3565b90611077565b6110d4565b90565b5f90565b9091939293611145611134565b5063a9059cbb60e01b92604051935f525f1960601c1660045260245260205f60448180855af19360015f5114851615611180575b5050604052565b8492941516611199575f903b113d151616915f80611179565b833d5f823e3d90fdfea26469706673582212207104612f4d571b7e2f85ed0d4cf5f40529935b27211e4ee666e0929c12182e1f64736f6c634300081a0033","linkReferences":{}},"methodIdentifiers":{"AAVE()":"48ccda3c","ENDPOINT()":"6fad06f5","OFT_IN()":"02ebb5fa","PAYANYWHERE()":"9ad6d3b2","TOKEN_IN()":"f00c202a","feeBps()":"24a9d853","handleCompose(bytes,uint256)":"4077882a","lzCompose(address,bytes32,bytes,address,bytes)":"d0a10260"},"id":42}